:020000040000FA
:100000000000022819309A0001309B008030000067
:100010000000F82000000000831200009D001B0873
:100020009C001B309E0001309F00831200001C08C2
:10003000A0001D08A100FF309C07031C9D032008A1
:10004000210403199A2804301E07A000A101A10D64
:100050001F08A10720089A0021089B00803000009B
:100060000000F8200000000083120000A3001B081D
:10007000A2001E089A001F089B00803000000000AC
:10008000F8200000000083120000A500A1001B085A
:10009000A400A00002301E07A000A101A10D1F08AE
:1000A000A10720089A0021089B0080300000000072
:1000B000F8200000000083120000A100A7001B0828
:1000C000A000A600831200002208A6002308A700B3
:1000D000FF30A207031CA303260827040319932853
:1000E00024089A0025089B00803000000000E520CD
:1000F0000000000083120000A600200883120313F2
:1001000084008313831200002118831726088312AA
:100110000313800083120000A40A0319A50AA00A91
:100120000319A10A62280630831200009E070318F3
:100130009F0A1528000000009E280800AC01AD01B0
:100140002C08A800A9012808AA00831285002D0800
:10015000A800A901A901280886002A0888004430BF
:10016000AC070318AD0A1F302D02031DB928FF305C
:100170002C02031CA028AC01AD012C08A800A90189
:100180002808831285002D08AA00AB01AB012A08BC
:1001900086000808AA00AB0128082A06031DD328F8
:1001A00029082B06031DE2204430AC070318AD0AD2
:1001B0001F302D02031DDE28FF302C02031CBD283A
:1001C000E22008000000E2280800003A0319EC28A9
:1001D000803A0319F32800341A08840083131B188B
:1001E0008317000808001B088A001A08820008000C
:1001F000003A03190029803A03190A299B010034A7
:100200001A08840083131B18831700089B00840AB4
:100210000008080000000000F32099009A0F9B03DB
:100220009B0A00000000F320980019089B001808A2
:10023000080002340034273401342C3400340234F2
:100240000034293401342E340034013400340034B5
:040250000034003442
:00000001FF
