:020000040000FA
:1000000000000228D2309A0000309B0080300000AF
:100010000000B12000000000831200009D001B08BA
:100020009C00D4309E0000309F00831200001C080A
:10003000A0001D08A100FF309C07031C9D032008A1
:10004000210403199A2804301E07A000A101A10D64
:100050001F08A10720089A0021089B00803000009B
:100060000000B1200000000083120000A3001B0864
:10007000A2001E089A001F089B00803000000000AC
:10008000B1200000000083120000A500A1001B08A1
:10009000A400A00002301E07A000A101A10D1F08AE
:1000A000A10720089A0021089B0080300000000072
:1000B000B1200000000083120000A100A7001B086F
:1000C000A000A600831200002208A6002308A700B3
:1000D000FF30A207031CA303260827040319932853
:1000E00024089A0025089B008030000000009E2014
:1000F0000000000083120000A600200883120313F2
:1001000084008313831200002118831726088312AA
:100110000313800083120000A40A0319A50AA00A91
:100120000319A10A62280630831200009E070318F3
:100130009F0A152800000000DA280800003A031979
:10014000A528803A0319AC2800341A0884008313C8
:100150001B188317000808001B088A001A08820071
:100160000800003A0319B928803A0319C3289B01F3
:1001700000341A08840083131B18831700089B009F
:10018000840A0008080000000000AC2099009A0FC3
:100190009B039B0A00000000AC20980019089B00FC
:1001A0001808080001340034DB34003428340034EB
:0801B0000134003408000034A2
:00000001FF
