:020000040000FA
:1000000000001928080000348E00030E83018D00C3
:100010000A088A018C000408A700A021852127086E
:1000200084000C088A0083010D0E83008E0E0E0ED4
:100030000900D230920001309300803000000000AF
:10004000D4200000000083120000A9001308A800BB
:10005000D430AA000130AB00831200002808AC00A5
:100060002908AD00FF30A807031CA9032D082C04A4
:100070000319B12804302A07AC00AD01AD0D2B08DF
:10008000AD072C0892002D0893008030000000007E
:10009000D4200000000083120000AF001308AE005F
:1000A0002A0892002B089300803000000000D42022
:1000B0000000000083120000B100AD001308AC0086
:1000C000B00002302A07AC00AD01AD0D2B08AD0722
:1000D0002C0892002D089300803000000000D420EE
:1000E0000000000083120000AD00B3001308B2004E
:1000F000AC00831200002E08B2002F08B300FF30BE
:10010000AE07031CAF03330832040319AA283008D2
:10011000920031089300803000000000C1200000F0
:10012000000083120000B2002C0883120313840025
:100130008313831200002D188317320883120313D0
:10014000800083120000B00A0319B10AAC0A031937
:10015000AD0A7928063083120000AA070318AB0AFB
:100160002C2800000000DA290800003A0319B928F9
:1001700008001208840083131318831711088000E5
:100180000800003A0319C828803A0319CF28003420
:10019000120884008313131883170008080013083B
:1001A0008A00120882000800003A0319DC28803A0D
:1001B0000319E628930100341208840083131318EE
:1001C000831700089300840A00080800000000005C
:1001D000CF209100920F9303930A00000000CF20DC
:1001E000900011089300100808009700950013086C
:1001F0009400960000301702031D002901301602FA
:10020000031806290A30960097010A291408960057
:100210001508970016089400170895009601970195
:1002200015081702031D16291408160203181D29A4
:100230000000960A0319970A102908009E00130867
:100240009D0012089C0092001D0893001E08C1200A
:1002500083128700DE219C009C1A302900002A2985
:10026000DE219C0080301C0483128900DE219C006A
:100270009C1E3C2900003629DE219C007F301C0595
:10028000831289000800A4001308A3000130A50010
:100290002508A6000310260DA500230892002408B7
:1002A00093002508C42180302502031C482903102F
:1002B000A50C23089200240893002508C4210230CD
:1002C0002502031857290800A1001308A0001208EE
:1002D0009F00DE21A200221A6F29000069298316DF
:1002E000070891001F089200200893002108B520FC
:1002F000DE219F0040301F0483128900DE219F0011
:10030000BF301F0583128900080083128700DE2199
:100310009A009A1A8D2900008729DE219A008030E0
:100320001A0483128900DE219A009A1E992900007E
:100330009329DE219A007F301A0583128900080074
:10034000DE219B001B1AA6290000A029DE219B00AC
:1003500040301B0483128900DE219B00BF301B0547
:100360008312890083160708080055344834653421
:100370006C346C346F34203457346F3472346C34D2
:10038000643421340A34003483128800130899003D
:100390001208980019040319D129180893001908A4
:1003A000F5200800013400340334003434340034C0
:1003B000013400348B170B16DC290800831209085E
:0803C00008000000E12908001B
:00000001FF
