:020000040000FA
:1000000000000228A6309A0001309B0080300000DA
:100010000000BD200000000083120000BD001B088E
:10002000BC00A830BE000130BF00831200003C08B5
:10003000C0003D08C100FF30BC07031CBD034108E0
:10004000400403199A2804303E07C000C101C10DC5
:100050003F08C10740089A0041089B00803000001B
:100060000000BD200000000083120000C3001B0838
:10007000C2003E089A003F089B008030000000004C
:10008000BD200000000083120000C500C1001B0855
:10009000C000C40002303E07C000C101C10D3F08CE
:1000A000C10740089A0041089B0080300000000012
:1000B000BD200000000083120000C100C7001B0823
:1000C000C600C000831200004208C6004308C700F3
:1000D000FF30C207031CC3034708460403199328D3
:1000E00044089A0045089B00803000000000AA20C8
:1000F0000000000083120000C600400883120313B2
:10010000840083138312000041188317460883126A
:100110000313800083120000C40A0319C50AC00A31
:100120000319C10A6228063083120000BE070318B3
:10013000BF0A1528000000006E290800003A0319C4
:10014000A22808001A08840083131B1883171908B3
:1001500080000800003A0319B128803A0319B82832
:1001600000341A08840083131B1883170008080042
:100170001B088A001A0882000800003A0319C528E3
:10018000803A0319CF289B0100341A088400831396
:100190001B18831700089B00840A00080800000051
:1001A0000000B82099009A0F9B039B0A00000000F2
:1001B000B820980019089B00180808009F009D00AF
:1001C0001B089C009E0000301F02031DE92801301F
:1001D0001E020318EF280A309E009F01F3281C0816
:1001E0009E001D089F001E089C001F089D009E0188
:1001F0009F011D081F02031DFF281C081E02031873
:10020000062900009E0A03199F0AF92808009C008D
:100210001B089E001A089F009A001E089B001C08DD
:10022000AA2083128700AE219F009F1A192900007F
:100230001329AE219F0080301F0483128900AE2154
:100240009F009F1E252900001F29AE219F007F309F
:100250001F05831289000800A7001B08A6000130B3
:10026000A8002808A9000310290DA80026089A0054
:1002700027089B002808982180302802031C312978
:100280000310A80C26089A0027089B00280898212C
:1002900002302802031840290800A4001B08A3000C
:1002A0001A08A200AE21A500251A582900005229DB
:1002B00083160708990022089A0023089B00240847
:1002C0009E20AE21A2004030220483128900AE217C
:1002D000A200BF302205831289000800AA010D3058
:1002E0002A02031884292A088A3EAB000130031829
:1002F000013EAC008030AD002B089A002C089B001A
:100300002D080721AA0A6F2900309B0008302C21F4
:100310006E290800483465346C346C346F342034F2
:1003200057346F3472346C34643421340A340034FA
:10033000831288001B08A1001A08A00021040319D9
:10034000A52920089B002108DE2008000134003484
:10035000B4340134483400340134003483120908C1
:0A03600008000000B1290800003475
:00000001FF
