:020000040000FA
:1000000000003228080000348E00030E83018D00AA
:100010000A088A018C000408B000CA21AD002D1E18
:1000200028280030AE003130AD00AF012D089A0015
:100030002E089B0000307D210030AE003130AD0035
:10004000AF012D089A002E089B00003037218B103D
:10005000300884000C088A0083010D0E83008E0E88
:100060000E0E0900C2309A0001309B008030000063
:100070000000ED200000000083120000B3001B0808
:10008000B200C430B4000130B50083120000320861
:10009000B6003308B700FF30B207031CB3033708BC
:1000A00036040319CA2804303407B600B701B70D67
:1000B0003508B70736089A0037089B0080300000E3
:1000C0000000ED200000000083120000B9001B08B2
:1000D000B80034089A0035089B008030000000000A
:1000E000ED200000000083120000BB00B7001B08D9
:1000F000B600BA0002303407B600B701B70D3508B4
:10010000B70736089A0037089B00803000000000CF
:10011000ED200000000083120000B700BD001B08A6
:10012000BC00B600831200003808BC003908BD00CE
:10013000FF30B807031CB9033D083C040319C3286A
:100140003A089A003B089B00803000000000DA204B
:100150000000000083120000BC0036088312031365
:100160008400831383120000371883173C0883121E
:100170000313800083120000BA0A0319BB0AB60AEF
:100180000319B70A9228063083120000B407031837
:10019000B50A452800000000BA290800003A0319F2
:1001A000D22808001A08840083131B188317190823
:1001B00080000800003A0319E128803A0319E82872
:1001C00000341A08840083131B18831700080800E2
:1001D0001B088A001A0882000800003A0319F52853
:1001E000803A0319FF289B0100341A088400831306
:1001F0001B18831700089B00840A000808000000F1
:100200000000E82099009A0F9B039B0A0000000061
:10021000E820980019089B00180808009F009D001E
:100220001B089C009E0000301F02031D192901308D
:100230001E0203181F290A309E009F0123291C0853
:100240009E001D089F001E089C001F089D009E0127
:100250009F011D081F02031D2F291C081E020318E1
:10026000362900009E0A03199F0A29290800A400C4
:100270001B08A3001A08A2009A0023089B00240868
:10028000DA2083128700CA21A200A21A492900009D
:100290004329CA21A2008030220483128900CA2186
:1002A000A200A21E552900004F29CA21A2007F30BA
:1002B0002205831289000800AA001B08A90001304A
:1002C000AB002B08AC0003102C0DAB0029089A00E2
:1002D0002A089B002B08AC2180302B02031C6129CB
:1002E0000310AB0C29089A002A089B002B08AC21AC
:1002F00002302B02031870290800A7001B08A60073
:100300001A08A500CA21A800281A882900008229F5
:1003100083160708990025089A0026089B002708DD
:10032000CE20CA21A5004030250483128900CA21AD
:10033000A500BF30250583128900080048346534C4
:100340006C346C346F34203457346F3472346C3402
:10035000643421340A340034831288001B08A1005D
:100360001A08A00021040319B92920089B002108BC
:100370000E2108008B170B1600309B0010305C21FB
:10038000BC29080001340034033400343E34003406
:10039000013400348312090808000000CD29080048
:00000001FF
