:020000040000FA
:100000000000022889309A0001309B0080300000F7
:100010000000BD200000000083120000AB001B08A0
:10002000AA008B30AC000130AD00831200002A081A
:10003000AE002B08AF00FF30AA07031CAB032F084C
:100040002E0403199A2804302C07AE00AF01AF0D1F
:100050002D08AF072E089A002F089B008030000063
:100060000000BD200000000083120000B1001B084A
:10007000B0002C089A002D089B0080300000000082
:10008000BD200000000083120000B300AF001B0879
:10009000AE00B20002302C07AE00AF01AF0D2D084C
:1000A000AF072E089A002F089B0080300000000048
:1000B000BD200000000083120000AF00B5001B0847
:1000C000B400AE00831200003008B4003108B5005F
:1000D000FF30B007031CB10335083404031993281B
:1000E00032089A0033089B00803000000000AA20EC
:1000F0000000000083120000B4002E0883120313D6
:1001000084008313831200002F188317340883128E
:100110000313800083120000B20A0319B30AAE0A67
:100120000319AF0A6228063083120000AC070318D7
:10013000AD0A152800000000DE280800003A031967
:10014000A22808001A08840083131B1883171908B3
:1001500080000800003A0319B128803A0319B82832
:1001600000341A08840083131B1883170008080042
:100170001B088A001A0882000800003A0319C528E3
:10018000803A0319CF289B0100341A088400831396
:100190001B18831700089B00840A00080800000051
:1001A0000000B82099009A0F9B039B0A00000000F2
:1001B000B820980019089B0018080800BB010D30F2
:1001C0003B02031806293B087B3EBC0001300318A4
:1001D000013EBD00BF008030C0003C08BE009A0058
:1001E0003F089B00400835213B081C3EBC00003006
:1001F0000318013EBD00BF00C0013C08BE009A00CC
:100200003F089B0000305A21BB0ADF28FF309B00CB
:10021000FF300C21DE280800B900B7001B08B6002B
:10022000B80000303902031D1729013038020318C5
:100230001D290A30B800B90121293608B80037084D
:10024000B9003808B6003908B700B801B901370855
:100250003902031D2D2936083802031834290000FD
:10026000B80A0319B90A27290800B6001B08B80004
:100270001A08B9009A0038089B003608AA20831291
:1002800087009121B900B91A47290000412991211D
:10029000B90080303904831289009121B900B91E58
:1002A000532900004D299121B9007F30390583126F
:1002B00089000800B6001B08B8001A08B90091218F
:1002C000BA003A1A652900005F29831607089900C9
:1002D00039089A0038089B0036089E209121B90001
:1002E00040303904831289009121B900BF303905AB
:1002F000831289000800483465346C346C346F34E0
:10030000203457346F3472346C34643421340A34FA
:100310000034013400349734013441340034013462
:1003200000348312090808000000942908000034F2
:00000001FF
