:020000040000FA
:1000000000002C28080000348E00030E83018D00B0
:100010000A088A018C000408A900F621A800281A01
:1000200013288B102228B321A80020302802031C9B
:100030001D2880302802031C1F288B102228280826
:1000400098218B10290884000C088A0083010D0E6A
:1000500083008E0E0E0E0900EE30920001309300E8
:10006000803000000000E720000000008312000044
:10007000AB001308AA00F030AC000130AD008312D1
:1000800000002A08AE002B08AF00FF30AA07031CAF
:10009000AB032F082E040319C42804302C07AE002C
:1000A000AF01AF0D2D08AF072E0892002F08930067
:1000B000803000000000E7200000000083120000F4
:1000C000B1001308B0002C0892002D089300803076
:1000D00000000000E7200000000083120000B300D1
:1000E000AF001308AE00B20002302C07AE00AF0123
:1000F000AF0D2D08AF072E0892002F089300803017
:1001000000000000E7200000000083120000AF00A4
:10011000B5001308B400AE00831200003008B4002C
:100120003108B500FF30B007031CB10335083404B3
:100130000319BD2832089200330893008030000074
:100140000000D4200000000083120000B4002E083C
:100150008312031384008313831200002F18831764
:10016000340883120313800083120000B20A0319BB
:10017000B30AAE0A0319AF0A8C28063083120000B6
:10018000AC070318AD0A3F2800000000E62908006C
:10019000003A0319CC2808001208840083131318AE
:1001A0008317110880000800003A0319DB28803A01
:1001B0000319E228003412088400831313188317EC
:1001C0000008080013088A00120882000800003A9C
:1001D0000319EF28803A0319F92893010034120813
:1001E000840083131318831700089300840A0008FF
:1001F000080000000000E2209100920F9303930A90
:1002000000000000E2209000110893001008080090
:100210009700950013089400960000301702031D04
:10022000132901301602031819290A309600970184
:100230001D29140896001508970016089400170841
:1002400095009601970115081702031D2929140826
:100250001602031830290000960A0319970A232969
:1002600008009F0013089E0012089D0092001E08BF
:1002700093001F08D42083128700F6219D009D1A49
:10028000432900003D29F6219D0080301D04831282
:100290008900F6219D009D1E4F2900004929F62165
:1002A0009D007F301D05831289000800A5001308FA
:1002B000A4000130A6002608A7000310270DA60001
:1002C00024089200250893002608D82180302602B1
:1002D000031C5B290310A60C240892002508930038
:1002E0002608D8210230260203186A290800A20035
:1002F0001308A1001208A000F621A300231A8229E6
:1003000000007C298316070891002008920021082C
:1003100093002208C820F621A00040302004831258
:100320008900F621A000BF30200583128900080053
:1003300083128700F6219A009A1AA02900009A29B0
:10034000F6219A0080301A0483128900F6219A005F
:100350009A1EAC290000A629F6219A007F301A05C2
:10036000831289000800F6219B001B1AB92900009E
:10037000B329831607089B00F6219C0040301C041B
:1003800083128900F6219C00BF301C05831289006E
:100390001B080800483465346C346C346F342034E6
:1003A00057346F3472346C34643421340A3400347A
:1003B0008312880013089900120898001904031981
:1003C000E529180893001908082108008B170B1657
:1003D0000030930010305621E82908000134003421
:1003E00003340034363400340134003483120908F5
:0803F00008000000F9290800D3
:00000001FF
